:020000040800F2
:1000000000000120F9540008934500089B450008B2
:10001000A3450008AB450008B345000800000000F8
:10002000000000000000000000000000BB450008C8
:10003000C745000800000000D3450008DF45000860
:100040004955000849550008ED4500084955000884
:100050004955000849550008495500084955000808
:10006000495500084955000849550008014600084F
:1000700049550008495500084955000849550008E8
:1000800049550008495500084955000849550008D8
:10009000000000004955000849550008495500086E
:1000A00049550008495500084955000849550008B8
:1000B00049550008495500084955000849550008A8
:1000C0004955000849550008495500084955000898
:1000D00015460008294600084955000849550008FA
:1000E00049550008495500083D4600084955000893
:1000F00049550008000000000000000049550008B4
:100100005146000865460008794600084955000830
:100110004955000849550008495500084955000847
:100120004955000849550008495500084955000837
:0801300049550008495500087B
:1001400010B5054C237833B9044B13B10448AFF311
:1001500000800123237010BDF0010020000000008A
:10016000E479010808B5034B1BB103490348AFF319
:10017000008008BD00000000F4010020E4790108BF
:1001800001F0FF01102A2BDB10F0070F08D010F848
:10019000013B013A8B422DD010F0070F42B3F6D14C
:1001A000F0B441EA012141EA014122F007047FF065
:1001B00000070023F0E80256083C85EA010586EABC
:1001C000010685FA47F5A3FA87F586FA47F6A5FAF8
:1001D00087F68EB9EED1F0BC01F0FF0102F0070204
:1001E00032B110F8013B013A83EA010313B1F8D1AF
:1001F0000020704701387047002D06BF3546033890
:10020000073815F0010F07D1013015F4807F02BFC8
:10021000013015F4C03F0130F0BC0138704700BF19
:10022000034613F8012B002AFBD1181A0138704736
:1002300081F0004102E000BF83F0004330B54FEA97
:1002400041044FEA430594EA050F08BF90EA020F04
:100250001FBF54EA000C55EA020C7FEA645C7FEA97
:10026000655C00F0E2804FEA5454D4EB5555B8BFBA
:100270006D420CDD2C4480EA020281EA030382EA2B
:10028000000083EA010180EA020281EA0303362DBD
:1002900088BF30BD11F0004F4FEA01314FF4801C90
:1002A0004CEA113102D0404261EB410113F0004FA2
:1002B0004FEA03334CEA133302D0524263EB430359
:1002C00094EA050F00F0A780A4F10104D5F1200EF7
:1002D0000DDB02FA0EFC22FA05F2801841F1000152
:1002E00003FA0EF2801843FA05F359410EE0A5F126
:1002F00020050EF1200E012A03FA0EFC28BF4CF057
:10030000020C43FA05F3C01851EBE37101F000450C
:1003100007D54FF0000EDCF1000C7EEB00006EEB19
:100320000101B1F5801F1BD3B1F5001F0CD34908A3
:100330005FEA30004FEA3C0C04F101044FEA4452FA
:1003400012F5800F80F09A80BCF1004F08BF5FEA81
:10035000500C50F1000041EB045141EA050130BD61
:100360005FEA4C0C404141EB0101013C28BFB1F573
:10037000801FE9D291F0000F04BF01460020B1FABE
:1003800081F308BF2033A3F10B03B3F120020CDA91
:100390000C3208DD02F1140CC2F10C0201FA0CF06F
:1003A00021FA02F10CE002F11402D8BFC2F1200CD4
:1003B00001FA02F120FA0CFCDCBF41EA0C0190408A
:1003C000E41AA2BF01EB0451294330BD6FEA0404D3
:1003D0001F3C1CDA0C340EDC04F11404C4F12002BE
:1003E00020FA04F001FA02F340EA030021FA04F3D0
:1003F00045EA030130BDC4F10C04C4F1200220FA27
:1004000002F001FA04F340EA0300294630BD21FA64
:1004100004F0294630BD94F0000F83F4801306BF2A
:1004200081F480110134013D4EE77FEA645C18BF1E
:100430007FEA655C29D094EA050F08BF90EA020FB5
:1004400005D054EA000C04BF1946104630BD91EAAD
:10045000030F1EBF0021002030BD5FEA545C05D1B0
:100460004000494128BF41F0004130BD14F58004EF
:100470003CBF01F5801130BD01F0004545F0FE4163
:1004800041F470014FF0000030BD7FEA645C1ABF98
:10049000194610467FEA655C1CBF0B46024650EACF
:1004A000013406BF52EA033591EA030F41F40021FB
:1004B00030BD00BF90F0000F04BF0021704730B581
:1004C0004FF4806404F132044FF000054FF0000156
:1004D00050E700BF90F0000F04BF0021704730B517
:1004E0004FF4806404F1320410F0004548BF4042EC
:1004F0004FF000013EE700BF42004FEAE2014FEA41
:1005000031014FEA02701FBF12F07F4393F07F4F1B
:1005100081F06051704732F07F4208BF704793F01E
:100520007F4F04BF41F40021704730B54FF4607431
:1005300001F0004521F000411CE700BF50EA010234
:1005400008BF704730B54FF000050AE050EA0102DD
:1005500008BF704730B511F0004502D5404261EB4D
:1005600041014FF4806404F132045FEA915C3FF48E
:10057000D8AE4FF003025FEADC0C18BF03325FEA2B
:10058000DC0C18BF033202EBDC02C2F1200300FADC
:1005900003FC20FA02F001FA03FE40EA0E0021FA01
:1005A00002F11444BDE600BF70B54FF0FF0C4CF4EF
:1005B000E06C1CEA11541DBF1CEA135594EA0C0FA1
:1005C00095EA0C0F00F0DEF82C4481EA030621EADC
:1005D0004C5123EA4C5350EA013518BF52EA033517
:1005E00041F4801143F4801338D0A0FB02CE4FF0C9
:1005F0000005E1FB02E506F00042E0FB03E54FF0F9
:100600000006E1FB03569CF0000F18BF4EF0010EF0
:10061000A4F1FF04B6F5007F64F5407404D25FEAEC
:100620004E0E6D4146EB060642EAC62141EA55519F
:100630004FEAC52040EA5E504FEACE2EB4F1FD0CE1
:1006400088BFBCF5E06F1ED8BEF1004F08BF5FEA5F
:10065000500E50F1000041EB045170BD06F0004611
:1006600046EA010140EA020081EA0301B4EB5C04BE
:10067000C2BFD4EB0C0541EA045170BD41F48011B6
:100680004FF0000E013C00F3AB8014F1360FDEBFDB
:10069000002001F0004170BDC4F10004203C35DAB7
:1006A0000C341BDC04F11404C4F1200500FA05F33A
:1006B00020FA04F001FA05F240EA020001F00042DB
:1006C00021F0004110EBD37021FA04F642EB060151
:1006D0005EEA430E08BF20EAD37070BDC4F10C047B
:1006E000C4F1200500FA04F320FA05F001FA04F23F
:1006F00040EA020001F0004110EBD37041F100012B
:100700005EEA430E08BF20EAD37070BDC4F1200535
:1007100000FA05F24EEA020E20FA04F301FA05F29D
:1007200043EA020321FA04F001F0004121FA04F245
:1007300020EA020000EBD3705EEA430E08BF20EA15
:10074000D37070BD94F0000F0FD101F0004640004F
:1007500041EB010111F4801F08BF013CF7D041EAD1
:10076000060195F0000F18BF704703F000465200D5
:1007700043EB030313F4801F08BF013DF7D043EAA6
:100780000603704794EA0C0F0CEA135518BF95EA5C
:100790000C0F0CD050EA410618BF52EA4306D1D1E3
:1007A00081EA030101F000414FF0000070BD50EA02
:1007B000410606BF1046194652EA430619D094EA8C
:1007C0000C0F02D150EA013613D195EA0C0F05D176
:1007D00052EA03361CBF104619460AD181EA0301CA
:1007E00001F0004141F0FE4141F470014FF0000082
:1007F00070BD41F0FE4141F4780170BD70B54FF01D
:10080000FF0C4CF4E06C1CEA11541DBF1CEA13559C
:1008100094EA0C0F95EA0C0F00F0A7F8A4EB05047E
:1008200081EA030E52EA03354FEA013100F0888075
:100830004FEA03334FF0805545EA131343EA12633E
:100840004FEA022245EA111545EA10654FEA0026F3
:100850000EF000419D4208BF964244F1FD0404F5AC
:10086000407402D25B084FEA3202B61A65EB030508
:100870005B084FEA32024FF480104FF4002CB6EBC5
:10088000020E75EB030E22BFB61A754640EA0C0045
:100890005B084FEA3202B6EB020E75EB030E22BF85
:1008A000B61A754640EA5C005B084FEA3202B6EBC6
:1008B000020E75EB030E22BFB61A754640EA9C0085
:1008C0005B084FEA3202B6EB020E75EB030E22BF55
:1008D000B61A754640EADC0055EA060E18D04FEA13
:1008E000051545EA16754FEA06164FEAC30343EAB3
:1008F00052734FEAC2025FEA1C1CC0D111F4801F80
:100900000BD141EA00014FF000004FF0004CB6E778
:1009100011F4801F04BF01430020B4F1FD0C88BF17
:10092000BCF5E06F3FF6AFAEB5EB030C04BFB6EB22
:10093000020C5FEA500C50F1000041EB045170BD15
:100940000EF0004E4EEA113114EB5C04C2BFD4EB42
:100950000C0541EA045170BD41F480114FF0000EC6
:10096000013C90E645EA060E8DE60CEA135594EA42
:100970000C0F08BF95EA0C0F3FF43BAF94EA0C0F45
:100980000AD150EA01347FF434AF95EA0C0F7FF4BA
:1009900025AF104619462CE795EA0C0F06D152EA0E
:1009A00003353FF4FDAE1046194622E750EA4106F2
:1009B00018BF52EA43067FF4C5AE50EA41047FF403
:1009C0000DAF52EA43057FF4EBAE12E74FF0FF3C68
:1009D00006E000BF4FF0010C02E000BF4FF0010C39
:1009E0004DF804CD4FEA410C7FEA6C5C4FEA430CB2
:1009F00018BF7FEA6C5C1BD001B050EA410C0CBF01
:100A000052EA430C91EA030F02BF90EA020F002062
:100A1000704710F1000F91EA030F58BF994208BFC9
:100A200090422CBFD8176FEAE37040F00100704786
:100A30004FEA410C7FEA6C5C02D150EA013C07D1DD
:100A40004FEA430C7FEA6C5CD6D152EA033CD3D028
:100A50005DF8040B704700BF8446104662468C4622
:100A60001946634600E000BF01B5FFF7B7FF002855
:100A700048BF10F1000F01BD4DF808EDFFF7F4FF7E
:100A80000CBF012000205DF808FB00BF4DF808ED09
:100A9000FFF7EAFF34BF012000205DF808FB00BF2C
:100AA0004DF808EDFFF7E0FF94BF012000205DF84E
:100AB00008FB00BF4DF808EDFFF7CEFF94BF012003
:100AC00000205DF808FB00BF4DF808EDFFF7C4FFFC
:100AD00034BF012000205DF808FB00BF4FEA410C45
:100AE0007FEA6C5C02D150EA013C0AD14FEA430C28
:100AF0007FEA6C5C02D152EA033C02D14FF0000065
:100B000070474FF0010070474FEA410212F50012A2
:100B100015D211D56FF47873B3EB625212D94FEA44
:100B2000C12343F0004343EA505311F0004F23FA2E
:100B300002F018BF404270474FF00000704750EA83
:100B4000013005D111F0004008BF6FF00040704740
:100B50004FF00000704700BF4A0011D212F500129A
:100B600011D20DD56FF47873B3EB62520ED44FEA05
:100B7000C12343F0004343EA505323FA02F0704785
:100B80004FF00000704750EA013002D14FF0FF30C3
:100B900070474FF0000070474FEA4102B2F1E04366
:100BA00024BFB3F5001CDCF1FE5C0DD901F0004C54
:100BB0004FEAC0024CEA5070B2F1004F40EB8300A4
:100BC00008BF20F00100704711F0804F21D113F1D0
:100BD0003872BCBF01F00040704741F480114FEA09
:100BE0005252C2F11802C2F1200C10FA0CF320FA92
:100BF00002F018BF40F001004FEAC1234FEAD323AF
:100C000003FA0CFC40EA0C0023FA02F34FEA430318
:100C1000CCE77FEA625307D150EA01331EBF4FF0A1
:100C2000FE4040F44000704701F0004040F0FE40BC
:100C300040F40000704700BF80F0004002E000BFB9
:100C400081F0004142001FBF5FEA410392EA030FB7
:100C50007FEA226C7FEA236C6AD04FEA1262D2EB01
:100C60001363C1BFD218414048404140B8BF5B4206
:100C7000192B88BF704710F0004F40F4000020F09F
:100C80007F4018BF404211F0004F41F4000121F0B5
:100C90007F4118BF494292EA030F3FD0A2F10102FF
:100CA00041FA03FC10EB0C00C3F1200301FA03F13D
:100CB00000F0004302D5494260EB4000B0F5000F60
:100CC00013D3B0F1807F06D340084FEA310102F11F
:100CD0000102FE2A51D2B1F1004F40EBC25008BFD1
:100CE00020F0010040EA03007047490040EB00009B
:100CF000013A28BFB0F5000FEDD2B0FA80FCACF19C
:100D0000080CB2EB0C0200FA0CF0AABF00EBC250C8
:100D100052421843BCBFD0401843704792F0000FB6
:100D200081F4000106BF80F400000132013BB5E709
:100D30004FEA41037FEA226C18BF7FEA236C21D07F
:100D400092EA030F04D092F0000F08BF08467047E4
:100D500090EA010F1CBF0020704712F07F4F04D1B2
:100D6000400028BF40F00040704712F100723CBFC5
:100D700000F50000704700F0004343F0FE4040F4EF
:100D8000000070477FEA226216BF08467FEA2363AD
:100D90000146420206BF5FEA412390EA010F40F498
:100DA000800070474FF0000304E000BF10F00043E4
:100DB00048BF40425FEA000C08BF704743F09643CB
:100DC00001464FF000001CE050EA010208BF7047E6
:100DD0004FF000030AE000BF50EA010208BF70476D
:100DE00011F0004302D5404261EB41015FEA010C82
:100DF00002BF84460146002043F0B64308BFA3F17A
:100E00008053A3F50003BCFA8CF2083AA3EBC2535B
:100E100010DB01FA02FC634400FA02FCC2F120027A
:100E2000BCF1004F20FA02F243EB020008BF20F0B1
:100E30000100704702F1200201FA02FCC2F1200217
:100E400050EA4C0021FA02F243EB020008BF20EA0C
:100E5000DC7070474FF0FF0C1CEAD0521EBF1CEA3A
:100E6000D15392EA0C0F93EA0C0F6FD01A4480EA28
:100E7000010C400218BF5FEA41211ED04FF0006311
:100E800043EA501043EA5111A0FB01310CF000403D
:100E9000B1F5000F3EBF490041EAD3715B0040EA63
:100EA000010062F17F02FD2A1DD8B3F1004F40EB33
:100EB000C25008BF20F00100704790F0000F0CF006
:100EC000004C08BF49024CEA502040EA51207F3ACA
:100ED000C2BFD2F1FF0340EAC250704740F40000A5
:100EE0004FF00003013A5DDC12F1190FDCBF00F096
:100EF00000407047C2F10002410021FA02F1C2F144
:100F0000200200FA02FC5FEA310040F1000053EADF
:100F10004C0308BF20EADC70704792F0000F00F02D
:100F2000004C02BF400010F4000F013AF9D040EA33
:100F30000C0093F0000F01F0004C02BF490011F4C7
:100F4000000F013BF9D041EA0C018FE70CEAD153C5
:100F500092EA0C0F18BF93EA0C0F0AD030F0004C45
:100F600018BF31F0004CD8D180EA010000F00040F9
:100F7000704790F0000F17BF90F0004F084691F0B7
:100F8000000F91F0004F14D092EA0C0F01D14202F1
:100F90000FD193EA0C0F03D14B0218BF084608D1BA
:100FA00080EA010000F0004040F0FE4040F4000004
:100FB000704740F0FE4040F4400070474FF0FF0C97
:100FC0001CEAD0521EBF1CEAD15392EA0C0F93EADE
:100FD0000C0F69D0A2EB030280EA010C49024FEA30
:100FE000402037D04FF0805343EA111143EA1013E9
:100FF0000CF000408B4238BF5B0042F17D024FF4A1
:10100000000C8B4224BF5B1A40EA0C00B3EB510F7B
:1010100024BFA3EB510340EA5C00B3EB910F24BF64
:10102000A3EB910340EA9C00B3EBD10F24BFA3EBE9
:10103000D10340EADC001B0118BF5FEA1C1CE0D1B1
:10104000FD2A3FF650AF8B4240EBC25008BF20F064
:10105000010070470CF0004C4CEA50207F32C2BFB8
:10106000D2F1FF0340EAC250704740F400004FF055
:101070000003013A37E792F0000F00F0004C02BF86
:10108000400010F4000F013AF9D040EA0C0093F050
:10109000000F01F0004C02BF490011F4000F013BAA
:1010A000F9D041EA0C0195E70CEAD15392EA0C0F12
:1010B00008D142027FF47DAF93EA0C0F7FF470AF4A
:1010C000084676E793EA0C0F04D14B023FF44CAF8D
:1010D00008466EE730F0004C18BF31F0004CCAD122
:1010E00030F000427FF45CAF31F000437FF43CAF5E
:1010F0005FE700BF4FF0FF3C06E000BF4FF0010C80
:1011000002E000BF4FF0010C4DF804CD4FEA400261
:101110004FEA41037FEA226C18BF7FEA236C11D0AB
:1011200001B052EA530C18BF90EA010F58BFB2EB5E
:10113000030088BFC81738BF6FEAE17018BF40F0DE
:10114000010070477FEA226C02D15FEA402C05D192
:101150007FEA236CE4D15FEA412CE1D05DF8040B17
:10116000704700BF844608466146FFE70FB5FFF7AA
:10117000C9FF002848BF10F1000F0FBD4DF808ED62
:10118000FFF7F4FF0CBF012000205DF808FB00BF53
:101190004DF808EDFFF7EAFF34BF012000205DF8AD
:1011A00008FB00BF4DF808EDFFF7E0FF94BF0120FA
:1011B00000205DF808FB00BF4DF808EDFFF7D2FFF7
:1011C00094BF012000205DF808FB00BF4DF808ED3A
:1011D000FFF7C8FF34BF012000205DF808FB00BF07
:1011E0004FEA4002B2F1FE4F0FD34FF09E03B3EB34
:1011F00012620DD94FEA002343F0004310F0004F74
:1012000023FA02F018BF404270474FF000007047C9
:1012100012F1610F01D1420205D110F0004008BF68
:101220006FF0004070474FF00000704742000ED250
:10123000B2F1FE4F0BD34FF09E03B3EB126209D411
:101240004FEA002343F0004323FA02F070474FF0C7
:101250000000704712F1610F01D1420202D14FF03C
:10126000FF3070474FF00000704700BF53B94AB9D4
:10127000002908BF00281CBF4FF0FF314FF0FF309E
:1012800000F0BEB9ADF1080C6DE904CE00F03CF8F9
:10129000DDF804E0DDE9022304B0704738B5002230
:1012A000002304460D46FFF7F1FB28B920462946E6
:1012B000BDE8384000F00AB8204605F1004100F0D2
:1012C00005F8404261EB410138BD00BFD0B50C4B81
:1012D000002206460F46FFF767F9FFF73DFC04467C
:1012E000FFF7E8F8074B0022FFF75EF902460B46CE
:1012F00030463946FEF7A0FFFFF72EFC2146D0BD51
:101300000000F03D0000F0412DE9F047089D0F4638
:1013100004468C46002B48D18A42164661D9B2FA5F
:1013200082F34BB1C3F1200201FA03FC20FA02F26E
:101330009E4042EA0C0C9C404FEA164EB7B2BCFBF2
:10134000FEF1220C0EFB11CC42EA0C4201FB07F02D
:10135000904209D9B21801F1FF3C80F0EE80904232
:1013600040F2EB8002393244121AA4B2B2FBFEF012
:101370000EFB102244EA024400FB07F7A74209D9FA
:10138000341900F1FF3280F0DA80A74240F2D780B2
:101390003444023840EA0140E41B00211DB1DC4026
:1013A0000023C5E90043BDE8F0878B4206D90DB1A3
:1013B000C5E9000100210846BDE8F087B3FA83F1D2
:1013C000002948D1BB4202D3824200F20781841A2D
:1013D00067EB030201209446002DE4D0C5E9004CE0
:1013E000E1E7002A00F09280B2FA82F3002B40F08D
:1013F000A8808A1A4FEA164E1FFA86FC0121200C9B
:10140000B2FBFEF70EFB172240EA02420CFB07F08C
:10141000904207D9B21807F1FF3802D2904200F289
:10142000E2804746121AA4B2B2FBFEF00EFB102275
:1014300044EA02440CFB00FCA44507D9341900F12E
:10144000FF3202D2A44500F2CB801046A4EB0C047C
:1014500040EA0740A2E7C1F120068B4022FA06FCD1
:101460004CEA030C07FA01F420FA06F3F7404FEABE
:101470001C49234300FA01F81FFA8CFEB7FBF9F070
:101480001C0C09FB107744EA074400FB0EF7A74247
:1014900002FA01F20AD91CEB040400F1FF3A80F0D1
:1014A0009B80A74240F2988002386444E41B9FB2BC
:1014B000B4FBF9F309FB134447EA044403FB0EFEB3
:1014C000A64509D91CEB040403F1FF3780F08280A4
:1014D000A6457FD9023B644443EA0040A4EB0E04D6
:1014E000A0FB02E7BC427346B94663D360D05DB14E
:1014F000B8EB030264EB090404FA06F622FA01F3DE
:101500001E43CC40C5E9006400214CE7620848084E
:1015100042EAC1710B0C43EA00438AB242EA034239
:10152000B3FBF6F1E407B4463746B6461F23B0FBDB
:10153000F6F0D21B41EA004161E7614614E710462C
:1015400028E7C3F1200120FA01F29E4027FA01F1B9
:101550009F403A434FEA164E1FFA86FCB1FBFEF756
:101560000EFB1710110C41EA004107FB0CF88845EF
:1015700004FA03F43AD9711807F1FF3001D2884513
:101580001FD8A1EB0801B1FBFEF808FB0CF70EFB1E
:10159000181192B242EA0142BA422FD2B21808F1AF
:1015A000FF31C6D2BA42C4D2A8F102013244C0E728
:1015B000F0459CD2BEEB020367EB0C070138B9463D
:1015C00095E7A6EB08084144B81EB1FBFEF808FBFE
:1015D0000CF7DCE73B467FE7504667E70846FBE64B
:1015E0003444023832E7023F32441BE7A1EB0801E2
:1015F0003846B1FBFEF808FB0CF7C8E7414698E710
:10160000704700BF80B485B000AF78604FF0B04342
:10161000DA6C4FF0B0417B681343CB644FF0B043BA
:10162000DA6C7B681340FB60FB6800BF1437BD4673
:1016300080BC704780B485B000AF78604FF0B04395
:101640001A6E4FF0B0417B6813430B664FF0B04306
:101650001A6E7B681340FB60FB6800BF1437BD4601
:1016600080BC704780B584B000AF3B1D00221A607B
:101670005A609A602C4B2D4A1A602B4B4FF0404217
:101680005A60294B00229A60274B0022DA60264BD1
:1016900000221A61244B04225A61234B00221A763D
:1016A000214B00225A76204B00229A761E4B0122B3
:1016B000DA611D4B002283F820201B4B00225A6266
:1016C000194B00229A62184B002283F82C20164BEB
:1016D00000221A63144B07225A63134B07229A63A2
:1016E000114B002283F83C200F4B0022DA640E4895
:1016F00004F0E4F90346002B01D002F077FC0C4B18
:101700007B600023BB600023FB603B1D194606483D
:1017100004F084FC0346002B01D002F067FC00BFFC
:101720001037BD4680BD00BF0C02002000240140E0
:101730002000001480B58CB000AF786007F11C0366
:1017400000221A605A609A60DA601A617B681B682E
:10175000104A93421AD14FF40070FFF76BFF02203A
:10176000FFF750FF07F1080300221A605A609A60E1
:10177000DA601A610423BB600323FB6000233B6132
:1017800007F108031946044805F0B2FB00BF3037E3
:10179000BD4680BD002401400004004880B588B0EB
:1017A00004AF7860244A7B6813602023FB72224BCD
:1017B00018684FF0FF3302930123019307F10B03E5
:1017C000009301230722602106F098F80A2003F015
:1017D0003BF80023FB72184B18684FF0FF3302935D
:1017E0000123019307F10B030093012308226021D9
:1017F00006F084F80A2003F027F80023FB6013E0CA
:101800000E4AFB684FF0474142F823100C4AFB6830
:101810000C4942F823100C4AFB684FF0000142F8D3
:101820002310FB680133FB60FB68012BE8DD00BF80
:1018300000BF1037BD4680BD70020020740200203A
:101840008402002000FEFF467C02002080B588B0A4
:1018500004AF0346FB718023FB731F4B18684FF0E6
:10186000FF3302930123019307F10F030093012338
:101870000722602106F042F8322002F0E5FFFB79F2
:10188000002B11D04023FB73134B18684FF0FF332C
:1018900002930123019307F10F0300930123072211
:1018A000602106F02BF810E02023FB730A4B186828
:1018B0004FF0FF3302930123019307F10F030093CD
:1018C00001230722602106F019F80A2002F0BCFF6C
:1018D00000BF1037BD4680BD7002002080B58CB0BF
:1018E00004AF0123FB730023BB7307F1080300223D
:1018F0001A609A806C4B18684FF0FF3302930123F3
:10190000019307F10F03009301230722602105F0E3
:10191000F5FF082002F098FF0023FB7715E0624BEB
:1019200018684FF0FF3302930123019307F10E0370
:10193000009301230622602106F0F4F8BB7B03F03C
:101940000103002B01D00123FB77FB7F83F0010310
:10195000DBB2002BE3D1544B18684FF0FF330293F6
:101960000623019307F1080300930123002260215D
:1019700006F0D8F87B7A1BB21B021AB23B7A1BB274
:1019800013437B82FB7A1BB21B021AB2BB7A1BB2D7
:1019900013433B82B7F912301846FFF707FA0346A4
:1019A0003B60B7F910301846FFF700FA03467B603A
:1019B0000023BB6114E0BB699B0020333B4453F818
:1019C000203C3A491846FFF745FA03461A46BB69D8
:1019D0009B0020333B4443F8202CBB690133BB619F
:1019E000BB69012BE7DD3B68314A13607B68314AF4
:1019F00013603B68304A126811461846FFF7E6FB51
:101A00000346002B02D03B682B4A13603B682B4AED
:101A1000126811461846FFF7BBFB0346002B02D0A5
:101A20003B68264A13607B68234A52681146184671
:101A3000FFF7CCFB0346002B02D07B681E4A5360A5
:101A40007B681E4A526811461846FFF7A1FB034601
:101A5000002B02D07B68194A536000237B611AE097
:101A6000154A7B6952F8232014497B6951F82330C9
:101A700019461046FFF7E6F803464FF08041184636
:101A8000FFF79CFA034619460D4A7B6942F823107A
:101A90007B6901337B617B69012BE1DD00BF00BF06
:101AA0002037BD4680BD00BF700200200000FA3E16
:101AB0008C0200209002002074020020840200208A
:101AC0007C02002080B586B000AF0020FFF7BEFE8C
:101AD000FFF704FF824B1B683B60824B1B687B60F7
:101AE0000120FFF7B3FEFFF7F9FE3B687C4A12685E
:101AF00011461846FFF7A4F803464FF080411846F8
:101B0000FFF75CFA03463B607B68764A1268114631
:101B10001846FFF795F803464FF080411846FFF747
:101B20004DFA03467B604FF000033B614FF000032A
:101B3000FB604FF000037B616B4BBB603B686B4A03
:101B4000126811461846FFF723FB0346002B57D0B7
:101B50007B68664A526811461846FFF737FB034612
:101B6000002B26D07B68614A526811461846FFF761
:101B700067F803463B615D4B1B683A68114618469F
:101B8000FFF75EF80346FB60F9683869FFF716FA5D
:101B90000346184615F00CFE0346B9681846FFF7D1
:101BA00059F9034619465248FFF74AF803467B6144
:101BB0007DE04E4B5B687A6811461846FFF740F8A7
:101BC00003463B61494B1B683A6811461846FFF7CC
:101BD00037F80346FB60F9683869FFF7EFF9034609
:101BE000184615F0E5FD0346B9681846FFF732F9C7
:101BF00003463F491846FFF725F803467B6156E048
:101C00007B683A4A526811461846FFF7C1FA034604
:101C1000002B26D0354B5B687A6811461846FFF7D3
:101C20000FF803463B613B68304A1268114618467C
:101C3000FFF706F80346FB60F9683869FFF7BEF95D
:101C40000346184615F0B4FD0346B9681846FFF779
:101C500001F9034619462748FEF7F2FF03467B6168
:101C600025E07B68214A526811461846FEF7E8FFD6
:101C700003463B613B681D4A126811461846FEF751
:101C8000DFFF0346FB60F9683869FFF797F9034601
:101C9000184615F08DFD0346B9681846FFF7DAF8C7
:101CA000034614491846FEF7CDFF03467B611249EF
:101CB0007869FEF7C7FF03467B6110497869FFF733
:101CC00085FA0346002B05D00C497869FEF7B8FF6A
:101CD00003467B617B6918461837BD4680BD00BF4F
:101CE0008C02002090020020E02E65427C02002041
:101CF0000000B442000087431F85C3400000B44386
:101D000080B582B000AF786025497868FFF75EFA49
:101D10000346002B06D123497868FFF739FA0346BA
:101D2000002B01D0204B36E020497868FFF74EFAAF
:101D30000346002B01D01E4B2DE01E497868FFF7AB
:101D400045FA0346002B01D01B4B24E01B49786861
:101D5000FFF73CFA0346002B01D0194B1BE0194951
:101D60007868FFF733FA0346002B01D0164B12E0D8
:101D700016497868FFF72AFA0346002B01D0144B66
:101D800009E014497868FFF721FA0346002B01D0D7
:101D9000114B00E0114B18460837BD4680BD00BF0F
:101DA00000A0A8430000B441007A0108004092431B
:101DB000087A010800807743147A010800804A43BA
:101DC0001C7A010800801D43287A01080000E142C6
:101DD000307A0108000087423C7A0108447A010801
:101DE00080B485B000AF78604FF0B0439A6C4FF08C
:101DF000B0417B6813438B644FF0B0439A6C7B68AF
:101E00001340FB60FB6800BF1437BD4680BC7047C1
:101E100080B500AF0420FFF7E3FF0120FFF7E0FFEC
:101E2000002202210B2004F036FC0B2004F04DFCB4
:101E300000BF80BD80B485B000AF78604FF0B04384
:101E4000DA6C4FF0B0417B681343CB644FF0B04382
:101E5000DA6C7B681340FB60FB6800BF1437BD463B
:101E600080BC704780B586B000AF3B1D00221A6071
:101E70005A609A60DA601A610220FFF7DBFF0120E6
:101E8000FFF7D8FF0420FFF7D5FF00224FF4807141
:101E90002C4805F072FA012220212A4805F06DFA3B
:101EA00000220221274805F068FA00224FF4005171
:101EB000254805F062FA4FF480737B600123BB6014
:101EC0000023FB6000233B613B1D19461D4805F0C4
:101ED0000FF820237B600123BB600023FB600323FA
:101EE0003B613B1D1946174805F002F84FF480533B
:101EF0007B600023BB600023FB603B1D194611483B
:101F000004F0F6FF02237B600123BB600023FB602B
:101F100000233B613B1D19460A4804F0E9FF4FF4DA
:101F200000537B600123BB600023FB6000233B6107
:101F30003B1D1946044804F0DBFF00BF1837BD46BF
:101F400080BD00BF000400480008004880B485B090
:101F500000AF78604FF0B043DA6C4FF0B0417B686F
:101F60001343CB644FF0B043DA6C7B681340FB60E3
:101F7000FB6800BF1437BD4680BC704780B485B095
:101F800000AF78604FF0B0439A6D4FF0B0417B687E
:101F900013438B654FF0B0439A6D7B681340FB6031
:101FA000FB6800BF1437BD4680BC704780B500AFEA
:101FB0001B4B1C4A1A601A4B1B4A5A60184B0022D2
:101FC0009A60174B0122DA60154B00221A61144BFC
:101FD00000225A61124B00229A61114B0022DA61F1
:101FE0000F4B00221A620E4805F0DEF90346002B63
:101FF00001D001F0FBFF0021094807F0D2F80346A9
:10200000002B01D001F0F2FF0021054807F013F981
:102010000346002B01D001F0E9FF00BF80BD00BFE7
:1020200094020020005C0040885D801080B596B06E
:1020300000AF786007F1440300221A605A609A608A
:10204000DA601A6107F10C0338220021184612F0F9
:1020500035FE7B681B681F4A934237D14FF480736B
:10206000FB604FF44013BB6207F10C03184608F005
:102070009DFB0346002B01D001F0B8FF0220FFF7C3
:1020800065FF4FF440637B641223BB640023FB6451
:1020900000233B6504237B6507F1440319460E4882
:1020A00004F026FF4FF40000FFF768FF0022002134
:1020B000302004F0F0FA302004F007FB0022002169
:1020C000312004F0E8FA312004F0FFFA00BF58375D
:1020D000BD4680BD005C00400004004880B483B071
:1020E00000AF78604FF0B043D3F8903023F018027F
:1020F0004FF0B0417B681343C1F8903000BF0C37FC
:10210000BD4680BC7047000080B582B000AF7860EB
:102110007868FEF785F803469AB24FF0FF33796886
:10212000034809F030FD00BF0837BD4680BD00BF41
:10213000E404002080B59AB004AF03460A46FB7160
:102140001346BB71FB7907F110001B4A462112F0C0
:1021500019FD07F110031846FFF7D6FFFB799AB275
:102160006423029301230193BB1D00930123D0211B
:10217000124805F0C3FB034687F8573097F85730ED
:1021800007F110000E4A462112F0FCFC07F1100383
:102190001846FFF7B9FF0023FB6002E0FB6801333C
:1021A000FB60FB684CF24F329342F7DD00BF00BF8B
:1021B0005837BD4680BD00BF507A01089402002008
:1021C0007C7A010880B588B004AF0346FB71002318
:1021D000FB73FB799AB2642302930123019307F105
:1021E0000F0300930123D021034805F09BFCFB7BE8
:1021F00018461037BD4680BD9402002080B586B0D9
:1022000004AF03463960FB711346BB80FB799AB279
:1022100064230293BB8801933B6800930123D02180
:10222000034805F07FFC00BF0837BD4680BD00BFF6
:102230009402002080B594B004AF1C48FFF764FFFF
:1022400000215B20FFF776FF00215C20FFF772FF83
:102250001748FFF759FF174B1B884FF47A72029209
:102260000193154B009301235E22D021134805F002
:1022700045FB034687F83F3097F83F30002B0DD0E1
:1022800097F83F3038460E4A3C2112F07BFC3B4623
:102290001846FFF739FF97F83F3003E00948FFF78A
:1022A00033FF002318464037BD4680BD907A0108B1
:1022B000C07A010800A301080083010894020020ED
:1022C000F87A01082C7B010880B582B000AF3B1D75
:1022D000022219462220FFF791FF7B791BB21B02D5
:1022E0001AB23B791BB21343FB80B7F9063018468C
:1022F000FEF75CFD03464FF088411846FEF75EFE90
:10230000034604491846FEF79DFC03461846083765
:10231000BD4680BD0000B84180B586B002AF786090
:102320003960F3237B7307F10D024FF0FF33009305
:10233000012380214E4805F0D3F8552002F084FA9D
:1023400007F108024FF0FF33009303238021484830
:1023500005F0DEF93B7A1BB21B021AB27B7A1BB284
:1023600003F0FC031BB213431BB2FB81FB8918462D
:10237000FEF718FD03461846FEF7BEF84FF00002C0
:102380003C4BFEF73BFA02460B461046194634A377
:10239000D3E90023FEF708F902460B46104619461A
:1023A00031A3D3E90023FDF747FF02460B46104651
:1023B0001946FEF7F1FB02467B681A60F5237B7332
:1023C00007F10D024FF0FF330093012380212848CD
:1023D00005F086F81D2002F037FA07F108024FF0E9
:1023E000FF33009303238021214805F091F93B7AC4
:1023F0001BB21B021AB27B7A1BB203F0FC031BB2A6
:1024000013431BB2FB81FB891846FEF7CBFC034646
:102410001846FEF771F84FF00002164BFEF7EEF982
:1024200002460B46104619464FF00002124BFEF7CB
:10243000BBF802460B46104619464FF000020F4B00
:10244000FDF7FAFE02460B4610461946FEF7A4FBBE
:1024500002463B681A6000BF1037BD4680BD00BF12
:10246000D7A3703D0AF76540CDCCCCCCCC6C4740AF
:10247000940200200000F04000405F40000018403F
:1024800080B586B000AF786007F1080300221A60BB
:102490005A609A607B68BB600023FB6000233B614D
:1024A00007F1080319460B4803F0B8FD094803F08B
:1024B00099FC6421074803F00DFD064803F0A1FDD7
:1024C0007861044803F0D4FC7B6918461837BD4690
:1024D00080BD00BF0C02002080B584B000AF002397
:1024E000FB600023FB720CE01948FFF7C9FF0246AE
:1024F000FB681344FB60052002F0A6F9FB7A013368
:10250000FB72FB7A092BEFD9F868FEF74BFC034608
:1025100010491846FEF752FD03467B604FF08B4191
:102520007868FEF74BFD03460B491846FEF792FC10
:1025300003463B6009493868FEF78CFC03460849AE
:102540001846FEF73BFD034618461037BD4680BDD2
:1025500010000010000020413333534000409C48DD
:1025600000D8564890B587B000AF7860444B194604
:102570007868FEF721FE0346002B01D064237BE040
:102580000B23013B3F4A52F8333019467868FEF777
:1025900009FE0346002B01D000236DE00023FB75EC
:1025A00064E0FB7D374A52F8333019467868FEF70D
:1025B000F9FD0346002B56D0FB7D0133314A52F81A
:1025C000333019467868FEF7F7FD0346002B4AD0F2
:1025D000FB7D2C4A52F83320FB7D0133294951F809
:1025E000333019461046FEF72BFB03463B61FB7D5B
:1025F000244ADB0013441B791946FB7D0133214A31
:10260000DB0013441B79CB1A1846FEF7CFFB0346B9
:10261000FB60FB7D01331B4A52F833301946786862
:10262000FEF70EFB034639691846FEF7C7FC034662
:10263000BB60FB7D0133134ADB0013441B79184652
:10264000FEF7B4FB0446F968B868FEF703FC0346DE
:1026500019462046FEF7F6FA03461846FEF7E6FD51
:102660000346DBB208E0FB7D0133FB75FA7D0B23EB
:10267000013B9A4295DB002318461C37BD4690BDAE
:102680006666864004A3010880B487B000AFF86096
:102690000B467A60FB720023FB750023BB75002399
:1026A0007B751BE0BB7DFA6813441B782C2B03D190
:1026B000FB7D0133FB750EE0FA7DFB7A9A420AD16D
:1026C000BB7DFA681A447B7D591C797519467B6875
:1026D0000B4412781A70BB7D0133BB75BB7DFA6861
:1026E00013441B78002B09D0BB7DFA6813441B7878
:1026F0002A2B03D0FA7DFB7A9A42D3D97B7D7A6864
:10270000134400221A7000BF1C37BD4680BC7047BE
:1027100080B483B000AF03460A46FB711346BB7119
:10272000114B1B785A1CD1B20F4A117019460F4A2F
:10273000FB7953540C4B1B785A1CD1B20A4A1170C6
:102740001A460A4B01219954074B1B785A1CD1B2E7
:10275000054A11701946054ABB79535400BF0C371E
:10276000BD4680BC704700BFD40300205403002046
:1027700080B483B000AF03460A46FB711346BB80AA
:10278000184B1B785A1CD1B2164A11701946164ABA
:10279000FB795354134B1B785A1CD1B2114A117058
:1027A0001A46114B02219954BB881B0A99B20D4B52
:1027B0001B785A1CD0B20B4A10701A46C9B20A4B89
:1027C0009954084B1B785A1CD1B2064A11701A460C
:1027D000BB88D9B2044B995400BF0C37BD4680BCAE
:1027E000704700BFD40300205403002080B483B09E
:1027F00000AF03463960FB71234B1B785A1CD1B2E2
:10280000214A11701946214AFB7953541E4B1B78FB
:102810005A1CD1B21C4A11701A461C4B04219954FF
:102820003B68190E184B1B785A1CD0B2164A107010
:102830001A46C9B2154B99543B68190C124B1B78B8
:102840005A1CD0B2104A10701A46C9B20F4B995494
:102850003B68190A0C4B1B785A1CD0B20A4A1070FC
:102860001A46C9B2094B9954074B1B785A1CD1B26E
:10287000054A11701A463B68D9B2044B995400BFFF
:102880000C37BD4680BC7047D403002054030020A1
:1028900090B482B000AF0446084611461A4623465B
:1028A000FB710346BB710B467B7113463B711B4B9F
:1028B0001B785A1CD1B2194A11701946184AFB7973
:1028C0005354164B1B785A1CD1B2144A11701A4635
:1028D000134B03219954114B1B785A1CD1B20F4A48
:1028E000117019460E4ABB7953540C4B1B785A1C75
:1028F000D1B20A4A11701946094A7B795354074BE1
:102900001B785A1CD1B2054A11701946044A3B790A
:10291000535400BF0837BD4690BC7047D403002015
:102920005403002090B482B000AF0446084611461C
:102930001A462346FB710346BB800B467B80134639
:102940003B80324B1B785A1CD1B2304A1170194669
:102950002F4AFB7953542D4B1B785A1CD1B22B4A6A
:1029600011701A462A4B06219954B7F904301B12EC
:1029700019B2264B1B785A1CD0B2244A10701A4642
:10298000C9B2234B9954214B1B785A1CD1B21F4A10
:1029900011701A46BB88D9B21D4B9954B7F9023051
:1029A0001B1219B2194B1B785A1CD0B2174A10705F
:1029B0001A46C9B2164B9954144B1B785A1CD1B203
:1029C000124A11701A467B88D9B2114B9954B7F943
:1029D00000301B1219B20D4B1B785A1CD0B20B4A97
:1029E00010701A46C9B20A4B9954084B1B785A1CEE
:1029F000D1B2064A11701A463B88D9B2044B995499
:102A000000BF0837BD4690BC704700BFD40300200C
:102A10005403002080B485B000AF0346B9607A60EB
:102A2000FB733B4B1B785A1CD1B2394A11701946C3
:102A3000384AFB7B5354364B1B785A1CD1B2344A6C
:102A400011701A46334B08219954BB68190E304B4C
:102A50001B785A1CD0B22E4A10701A46C9B22D4BA0
:102A60009954BB6819142A4B1B785A1CD0B2284AB7
:102A700010701A46C9B2274B9954BB681912244BDF
:102A80001B785A1CD0B2224A10701A46C9B2214B88
:102A900099541F4B1B785A1CD1B21D4A11701A460B
:102AA000BB68D9B21B4B99547B68190E184B1B7825
:102AB0005A1CD0B2164A10701A46C9B2154B995416
:102AC0007B681914124B1B785A1CD0B2104A107034
:102AD0001A46C9B20F4B99547B6819120C4B1B78DC
:102AE0005A1CD0B20A4A10701A46C9B2094B9954FE
:102AF000074B1B785A1CD1B2054A11701A467B68E5
:102B0000D9B2044B995400BF1437BD4680BC7047FE
:102B1000D40300205403002090B587B000AF786044
:102B20000B46FB707B681B78002B01D1002345E02E
:102B3000786810F001FD02460B4610461946FEF774
:102B40002BF803463B611F493869FEF737FA034605
:102B50001846FEF745FB0346FB60F868FEF726F9CA
:102B6000034618491846FEF775F9034619463869B1
:102B7000FEF766F80346BB60F868FEF717F90446EF
:102B80001149B868FEF71AFA034619462046FEF7BF
:102B900059F803467B61FB78532B02D0FB78572B07
:102BA00003D17B6983F000437B6108497869FEF7B4
:102BB00051F903461846FEF713FB034618461C3727
:102BC000BD4690BD0000C842000070420050C3479F
:102BD00080B586B000AF786007F108030E22194671
:102BE0000C20FFF70BFB7B7A1BB21B021AB23B7A5D
:102BF0001BB213431AB27B681A80FB7A1BB21B020A
:102C00001AB2BB7A1BB213431AB27B685A807B7B21
:102C10001BB21B021AB23B7B1BB213431AB27B6876
:102C20009A80FB7B1BB21B021AB2BB7B1BB2134305
:102C30001AB27B68DA807B7C1BB21B021AB23B7C27
:102C40001BB213431AB27B681A81FB7C1BB21B02B6
:102C50001AB2BB7C1BB213431AB27B685A81FFF7CE
:102C600033FB02467B68DA6000BF1837BD4680BD83
:102C700090B583B000AF0446084611461A46234675
:102C8000FB710346BB710B467B7113463B71304BA6
:102C900000221A70FB79002B14D03B797A79B9792C
:102CA0000120FFF7F5FDFA69B9690220FFF7B2FECE
:102CB0003B8C19460320FFF75BFDBB8C19460420B3
:102CC000FFF756FDB7F93030B7F92C20B7F92810C7
:102CD0000520FFF727FEB7F93C30B7F93820B7F9E0
:102CE00034100620FFF71EFEB7F8403019460720C3
:102CF000FFF73EFDB7F8443019460820FFF738FDCE
:102D0000B96C0920FFF772FDB7F84C3019460B205B
:102D1000FFF72EFD97F8503019460C20FFF7F8FC0E
:102D2000B7F8543019460D20FFF722FDB7F8583098
:102D300019460E20FFF71CFD97F85C3019460F204E
:102D4000FFF7E6FC024B1B7818460C37BD4690BDDA
:102D5000D40300202DE9F04FADF2FC5D2CAF02F062
:102D6000EDFC00F095FFFFF77DF80EF0C6FCFFF7D5
:102D70001DF902F009F902F053F9FEF773FC07F2AE
:102D8000BC4300221A605A609A60DA601A614FF4FC
:102D90000053C7F8BC340123C7F8C0340023C7F878
:102DA000C4340023C7F8C83407F2BC431946B348FB
:102DB00004F09EF840F6B83001F046FDB048FFF749
:102DC000A3F9B048FFF7A0F9012387F847351EE0C3
:102DD00097F847359BB25B0099B20A230122AA48B3
:102DE00004F0BAFF0346002B0CD197F8473507F5DE
:102DF0008E60A64A1E2111F0C5FE07F58E631846A7
:102E0000FFF782F997F84735013387F8473597F987
:102E10004735002BDCDA9C48FEF7C0FC00219A48BD
:102E200001F07CF94FF40051944804F08FFA034606
:102E300087F81F354FF00003C7F840350020FFF733
:102E4000C1F9034687F81E3501229149914809F0DE
:102E500003F801228E498F4808F0FEFF97F81E35CF
:102E6000242B0DD097F81E3507F5FC708A4A3C21BB
:102E700011F088FE07F5FC731846FFF745F946E0A8
:102E800000217C20FFF756F9012001F0DDFC002134
:102E90005920FFF74FF9012001F0D6FCFFF7CAF9DE
:102EA000142001F0D1FC01215920FFF743F914202F
:102EB00001F0CAFCA8214020FFF73CF9012001F0F5
:102EC000C3FC02214120FFF735F9012001F0BCFCD1
:102ED0000E217D20FFF72EF9012001F0B5FC022123
:102EE0007C20FFF727F9022001F0AEFCA921422047
:102EF000FFF720F9012001F0A7FC00214320FFF794
:102F000019F9012001F0A0FC6448FFF7FDF801F079
:102F100087FCC7F83C0501F083FCC7F83805604B17
:102F2000DB685F4A43F08073D3605E4B00225A60D7
:102F30005C4B1B685B4A43F00103136007F5926327
:102F400000221A605A609A60DA601A610123C7F899
:102F500090341123C7F894340023C7F8983402231F
:102F6000C7F89C3407F5926319464FF0904003F080
:102F7000BFFF002387F83735002387F83635454BE8
:102F8000D3F88C30202B09D101224149414808F067
:102F900063FF01223E493F4808F05EFF424B1B8819
:102FA0009AB2424B1B889BB29A4200F09C803F4BE6
:102FB0001B889BB21A463E4B9B5C87F81D353B4BEA
:102FC0001B889BB201335A42C3F30803C2F30802C1
:102FD00058BF53429AB2354B1A8097F81D350A2BC9
:102FE00003D0344B1B78622B6ED9324B1B781A46B8
:102FF000314B0021995431492F4811F088FE034686
:10300000002B20D007F2644300221A605A601A8114
:1030100007F264431A4607212748FFF735FB07F2FA
:1030200064431B78002B24D007F26443184610F049
:1030300083FA02460B4610461946FDF7ADFD0346DE
:10304000C7F8403515E01E491B4811F060FE0346E5
:10305000002B0ED001F0E4FBC7F83C05012387F8F4
:103060003635184B1B78DBB2002B02D1012387F8D1
:103070003735104B00221A7035E000BF00040048BD
:103080004C7B0108687B010894020020807B0108CA
:10309000E0070020500400209C7B0108CC7B010845
:1030A000F0ED00E0001000E0DC070020DE0700206B
:1030B000DC05002050030020EC020020DC7B01082E
:1030C000E07B0108E902002097F81D350D2B0AD09E
:1030D000754B1B785A1CD1B2734A11701946734A4A
:1030E00097F81D355354724B1B78DBB2002B20D15F
:1030F00001F096FB0246D7F83C35D31AB3F5FA6FC8
:1031000013D901F08DFB0246D7F83835D31AB3F541
:103110007A7F0ED901F084FBC7F83805012387F8C0
:103120003735002387F8363503E001F079FBC7F81F
:10313000380597F83735012B40F09E855C4B1B789E
:10314000DBB2002B40F098855A4B00221A70584B86
:1031500001221A7007F2544300221A605A609A60E2
:10316000C3F80B2007F5A963A3F582731A46002361
:10317000136053609360C2F80B3007F5A963A3F5A1
:10318000847300221A8007F5A963A3F58C731A468D
:103190000023136053609360C2F80B3007F5A963F6
:1031A000A3F58E7300221A8007F5A963A3F5947323
:1031B00000221A605A601A8107F5A963A3F5967375
:1031C00000221A80002387F83535002387F834352C
:1031D000002387F83335002387F832350023A7F81A
:1031E0001A350023C7F82C350023C7F828350023EB
:1031F000A7F8263597F83635002B00F0AC8007F29B
:1032000054431A4601212948FFF73EFA07F2444386
:103210001A4602212548FFF737FA07F588631A4650
:1032200003212248FFF730FA07F586631A46042186
:103230001E48FFF729FA07F22C431A4605211B48BE
:10324000FFF722FA07F21C431A4606211748FFF738
:103250001BFA07F584631A4609211448FFF714FA8C
:1032600007F5A963A3F596731B78302B73D9012357
:1032700087F8353597F85434A3F1300213469B0094
:1032800013445B001A4697F85534303B1344C7F893
:103290001435D7F81435022B0EDCD7F81435DBB211
:1032A0001533DBB20DE000BF50030020EC0200201C
:1032B000E9020020D4030020D7F81435DBB2033B29
:1032C000DBB287F8343597F85634303BDBB21A4618
:1032D000920013445B00DAB297F857341344DBB220
:1032E000303B87F8333597F85834303BDBB21A4619
:1032F000920013445B00DAB297F859341344DBB2FE
:10330000303B87F8323507F5A963A3F584731A7843
:1033100007F2444311461846FFF7FEFBC7F82C0599
:1033200007F5A963A3F58E731A7807F5866311462E
:103330001846FFF7F1FBC7F8280507F58463184620
:1033400010F0FAF802460B4610461946FDF7DCFB72
:103350000346A7F8263507F2A4431846FFF738FCC2
:10336000B7F9A4341846FDF721FD03464FF08B4111
:103370001846FDF723FE0346C7F81035B7F9A63403
:103380001846FDF713FD03464FF08B411846FDF735
:1033900015FE0346C7F80C35B7F9A8341846FDF7F3
:1033A00005FD03464FF08B411846FDF707FE034627
:1033B000C7F80835B7F9AA341846FDF7F7FC0346F5
:1033C000B1491846FDF7FAFD0346C7F80435B7F9C9
:1033D000AC341846FDF7EAFC0346AB491846FDF746
:1033E000EDFD0346C7F80035B7F9AE341846FDF7D2
:1033F000DDFC0346A4491846FDF7E0FD0346C7F887
:10340000FC3407F2B44207F5976311461846FEF7FD
:1034100083FFD7F8B8349D491846FDF71BFD0346D6
:103420001846FDF7DDFE0346A7F8FA34D7F8B434A2
:1034300096491846FDF70EFD03461846FDF7F6FEC1
:103440000346A7F8F83407F5A963A3F598734FF07E
:1034500000021A6007F5A963A3F59A734FF0000202
:103460001A6007F2144207F583631946884800F092
:1034700091FE07F5A963A3F59A731B688349184663
:10348000FDF79CFD0346C7F8F4348049D7F8F404EF
:10349000FDF7E0FC03461846FDF7C8FE0346C7F8F3
:1034A000F034FEF70FFBC7F8EC04D7F8EC04FEF796
:1034B00027FCC7F8E8047549D7F8EC04FDF7CAFC07
:1034C00003461846FDF7B2FE0346A7F8E6346F49F7
:1034D000D7F84005FDF7BEFC03461846FDF7A6FEEB
:1034E0000346A7F81A35FEF7F7FFC7F8E004694B63
:1034F0001B684FF000011846FDF740FE0346002B05
:1035000004D0644AD7F8E034136015E06249D7F874
:10351000E004FDF79FFC03461C465E4B1B685F49B9
:103520001846FDF797FC034619462046FDF78AFB2F
:1035300003461A46574B1A60564B1B68C7F8DC34D3
:10354000D7F8DC04FFF70EF8034687F8DB3400F009
:10355000CBFCC7F8D404D7F8D40400F00DFD4FF429
:1035600000514F4803F0F2FE034687F8D3344D492B
:10357000D7F8DC04FDF76EFC03461846FDF756FE4F
:103580000346A7F8D034B7F9A444B7F9A654B7F95D
:10359000A864B7F9AA343B66B7F9AC24FA65B7F961
:1035A000AE14B9653949D7F8D404FDF753FC034686
:1035B0001846FDF715FE03461BB297F832E597F85B
:1035C00033C597F8341597F8350597F8D324119239
:1035D0001093B7F8E6340F9397F8DB340E93B7F8EF
:1035E000D0340D93D7F8F0340C93B7F8F8340B932C
:1035F000B7F9FA340A93D7F85880CDF82480FA6DD9
:1036000008923B6E0793069605950494B7F81A3511
:103610000393B7F926350293D7F828350193D7F8E5
:103620002C35009373466246FFF722FB07F5A9632A
:10363000A3F59C641C4B204619464B231A4611F0F7
:10364000F4FB04F14B0300221A605A609A60DA60BE
:103650001A615A611A7607F168031846FEF754FD9D
:1036600007F5A963A3F5836310491A46086810603B
:10367000898891800633C2220021184611F01EFB72
:103680000023C7F820352BE0333383410000C842C4
:1036900094020020D8030020CDCC4C3ECDCC4C3F32
:1036A0000004004800007A44687D0108CC7D0108D0
:1036B000854AD7F8203513441B7807F20C40834A1B
:1036C000052111F05FFA07F20C4207F598731146D5
:1036D000184611F0FBFAD7F820350133C7F820352A
:1036E0007B4B1B781A46D7F820359342E0DB784BAA
:1036F0001B7807F57E70774A142111F043FA07F51D
:103700007E7207F598731146184611F0DFFA07F537
:1037100098731846FEF7F8FC07F168031846FEF7A1
:10372000F3FC01F07DF80246D7F83C35D31AB3F527
:10373000FA6F40F2D780D7F84005FCF7DDFEC7E905
:10374000180197F83435FB6597F83335BB6597F862
:1037500032357B65D7F81005FCF7CEFEC7E91201BC
:10376000D7F80C05FCF7C8FEC7E91001D7F8080523
:10377000FCF7C2FEC7E90E01D7F80405FCF7BCFE52
:10378000C7E90C01D7F80005FCF7B6FEC7E90A0146
:10379000D7F8FC04FCF7B0FEC7E90801D7F8B0344D
:1037A0001846FCF7A9FEC7E90601D7F8B834184651
:1037B000FCF7A2FEC7E90401D7F8B4341846FCF7B9
:1037C0009BFEC7E9020107F5A963A3F598731B687F
:1037D0001846FCF791FEC7E90001D7F8F404FCF79E
:1037E0008BFE82468B46D7F8EC04FCF785FE8046BC
:1037F0008946D7F8D404FCF77FFE04460D4697F8B7
:10380000D334002B01D0344E00E0344ED7F8DC0422
:10381000FCF772FE02460B4697F8DB1407F2444CA5
:1038200007F5FC702A91CDE928232696CDE9244599
:10383000D7F8E8342293CDE92089CDE91EABD7E94A
:103840000034CDE91C34D7E90234CDE91A34D7E984
:103850000434CDE91834D7E90634CDE91634D7E974
:103860000834CDE91434D7E90A34CDE91234D7E964
:103870000C34CDE91034D7E90E34CDE90E34D7E954
:103880001034CDE90C34D7E91234CDE90A347B6D1C
:103890000893BB6D0793FB6D0693D7E91834CDE908
:1038A000043407F58463039307F22C43029307F56E
:1038B0008663019307F5886300936346084A4FF4D3
:1038C000007111F05FF9B1E154030020E47B0108BD
:1038D000D4030020EC7B0108FC7B0108007C01087C
:1038E000047C010897F83635002B00F0D18007F5ED
:1038F000A963A3F596731B78302B40F2C980D7F8E3
:103900004005FCF7F9FDC7E9180197F83435FB6568
:1039100097F83335BB6597F832357B65D7F81005D6
:10392000FCF7EAFDC7E91201D7F80C05FCF7E4FD46
:10393000C7E91001D7F80805FCF7DEFDC7E90E015D
:10394000D7F80405FCF7D8FDC7E90C01D7F8000546
:10395000FCF7D2FDC7E90A01D7F8FC04FCF7CCFD5F
:10396000C7E90801D7F8B0341846FCF7C5FDC7E928
:103970000601D7F8B8341846FCF7BEFDC7E90401C4
:10398000D7F8B4341846FCF7B7FDC7E9020107F5CC
:10399000A963A3F598731B681846FCF7ADFDC7E94A
:1039A0000001D7F8F404FCF7A7FD82468B46D7F850
:1039B000EC04FCF7A1FD80468946D7F8D404FCF757
:1039C0009BFD04460D4697F8D334002B01D0654E7D
:1039D00000E0654ED7F8DC04FCF78EFD02460B468E
:1039E00097F8DB1407F2444C07F5FC702A91CDE9F7
:1039F00028232696CDE92445D7F8E8342293CDE94B
:103A00002089CDE91EABD7E90034CDE91C34D7E9D4
:103A10000234CDE91A34D7E90434CDE91834D7E9B2
:103A20000634CDE91634D7E90834CDE91434D7E9A2
:103A30000A34CDE91234D7E90C34CDE91034D7E992
:103A40000E34CDE90E34D7E91034CDE90C34D7E982
:103A50001234CDE90A347B6D0893BB6D0793FB6D7F
:103A60000693D7E91834CDE9043407F5846303934A
:103A700007F22C43029307F58663019307F58863E9
:103A800000936346394A4FF4007111F07BF8CDE0A2
:103A9000D7F84005FCF730FDC7E9180197F8343531
:103AA000FB6597F83335BB6597F832357B65D7F8FA
:103AB0001005FCF721FDC7E91201D7F80C05FCF74A
:103AC0001BFDC7E91001D7F80805FCF715FDC7E98C
:103AD0000E01D7F80405FCF70FFDC7E90C01D7F874
:103AE0000005FCF709FDC7E90A01D7F8FC04FCF75B
:103AF00003FDC7E90801D7F8B0341846FCF7FCFC11
:103B0000C7E90601D7F8B8341846FCF7F5FCC7E951
:103B10000401D7F8B4341846FCF7EEFCC7E90201FB
:103B200007F5A963A3F598731B681846FCF7E4FC36
:103B3000C7E90001D7F8F404FCF7DEFC82468B46A7
:103B4000D7F8EC04FCF7D8FC80468946D7F8D404B3
:103B5000FCF7D2FC04460D4697F8D334002B07D06F
:103B6000004E06E0FC7B0108007C0108047C010893
:103B7000434ED7F8DC04FCF7BFFC02460B4697F82F
:103B8000DB1407F2444C07F5FC702A91CDE9282399
:103B90002696CDE92445D7F8E8342293CDE920894B
:103BA000CDE91EABD7E90034CDE91C34D7E90234A6
:103BB000CDE91A34D7E90434CDE91834D7E906340D
:103BC000CDE91634D7E90834CDE91434D7E90A34FD
:103BD000CDE91234D7E90C34CDE91034D7E90E34ED
:103BE000CDE90E34D7E91034CDE90C34D7E91234DD
:103BF000CDE90A347B6D0893BB6D0793FB6D06938B
:103C0000D7E91834CDE9043407F58463039307F248
:103C10002C43029307F58663019307F588630093AD
:103C20006346184A4FF4007110F0ACFF07F5A96322
:103C3000A3F27C44144B204619464D231A4611F03A
:103C4000F4F804F14D0300221A605A609A60DA60B9
:103C50001A61C3F8132007F5FC731846FEF754FAEF
:103C600007F1CC031846FEF74FFA084B01221A70F1
:103C7000002101200EF0CCFE0DF047FDFFF779B9D1
:103C8000007C0108047C0108D47D0108E8020020C2
:103C900080B59AB000AF07F12003482200211846F2
:103CA00011F00CF807F1080300221A605A609A60BC
:103CB000DA601A615A6105F009FB0020FEF70EFA7E
:103CC0001F4B1B6823F4C0631D4A43F40073136049
:103CD0001B4B1B6803F4C0637B607B6824233B623F
:103CE0008123FB6201233B6400237B64B023BB641C
:103CF0000023FB6407F12003184605F033FE03465A
:103D0000002B01D000F072F94F23BB600023FB6051
:103D100000233B6100237B610023BB610023FB6127
:103D200007F108030221184606F09EF90346002B0E
:103D300001D000F05BF900BF6837BD4680BD00BF11
:103D40000004005880B485B000AF78600D4B5B680C
:103D5000FB600D4B1B680D4AA2FB03239A0C7B688A
:103D600002FB03F3BB6000BF064B5A68FB68D31A23
:103D7000BA689A42F8D800BF00BF1437BD4680BC6D
:103D8000704700BF001000E00000002083DE1B43EE
:103D900080B582B000AF4FF0904301229A624FF499
:103DA000F070FFF7CFFF4FF0904301229A61462059
:103DB000FFF7C8FF4FF090431B6903F00103002B8E
:103DC0000CBF01230023DBB2FB714FF4CD70FFF772
:103DD000B9FFFB7918460837BD4680BD80B582B073
:103DE00000AF0346FB71FB79002B0ED04FF09043E0
:103DF00001229A620620FFF7A5FF4FF090430122AF
:103E00009A614020FFF79EFF0DE04FF090430122A2
:103E10009A623C20FFF796FF4FF0904301229A618F
:103E20000A20FFF78FFF00BF0837BD4680BD80B571
:103E300082B000AF4FF0904301229A620620FFF754
:103E400081FF4FF0904301229A610920FFF77AFF2A
:103E50004FF090431B69DBB203F00103FB71372085
:103E6000FFF770FFFB7918460837BD4680BD80B567
:103E700084B000AF0346FB710023FB730CE0FB79B9
:103E800003F00103DBB21846FFF7A8FFFB795B08DC
:103E9000FB71FB7B0133FB73FB7B072BEFD900BF6F
:103EA00000BF1037BD4680BD80B582B000AF002393
:103EB000FB710023BB710EE0FB795B08FB71FFF720
:103EC000B6FF0346002B03D0FB7963F07F03FB7141
:103ED000BB790133BB71BB79072BEDD9FB79184650
:103EE0000837BD4680BD000080B582B000AFFFF747
:103EF0004FFF0346002B01D11E4B37E072B600BFC7
:103F0000FFF746FFCC20FFF7B2FF4420FFF7AFFFDB
:103F100062B600BF40F2EE2000F096FC72B600BF21
:103F2000FFF736FFCC20FFF7A2FFBE20FFF79FFF71
:103F3000FFF7BAFF0346FB71FFF7B6FF0346BB71FD
:103F400062B600BFBB791BB21B021AB2FB791BB26F
:103F50001343BB80B7F904301846FCF727FF03462C
:103F60004FF083411846FDF729F8034618460837F5
:103F7000BD4680BD0000FEC280B582B000AF786053
:103F8000164B1B78002B10D115497868FDF700F906
:103F90000346002B09D0114B01221A7001224FF465
:103FA0000051104803F0E9F914E00C4B1B78002B8A
:103FB00010D00D497868FDF709F90346002B00D1B0
:103FC00008E0064B00221A7000224FF40051054809
:103FD00003F0D3F900BF0837BD4680BDDC030020E5
:103FE00000002041000400480000A04180B400AF60
:103FF00072B600BF00BFFDE780B584B002AF786045
:104000000B46FB70FA1C4FF0FF3300930123EC21A9
:10401000786803F065FA00BF0837BD4680BD80B5FB
:1040200088B004AF78604FF0FF330293032301930D
:1040300007F10C03009301230022EC21786803F0C0
:1040400071FD3B7B1A047B7B1B021343BA7B13433A
:1040500018461037BD4680BD80B588B004AF786083
:104060000B46FB70FB7850339BB25B009AB24FF06B
:10407000FF3302930223019307F10C030093012302
:10408000EC21786803F04EFD3B7B1BB21B021AB299
:104090007B7B1BB213431BB29BB218461037BD4645
:1040A00080BD000080B483B000AF0346FB711A4BA3
:1040B0004FF07E521A60184B4FF08E425A60164BEA
:1040C0004FF08F429A60144B4FF06E52DA60124BF1
:1040D0004FF070521A61104B4FF087425A610E4BED
:1040E0004FF050529A61FB79012B0FD10A4B4FF0E0
:1040F0008F425A60084B4FF090429A60064B4FF047
:104100007052DA60044B4FF072521A6100BF0C37E4
:10411000BD4680BC704700BFE0030020B0B584B04E
:1041200000AF78600B46FB701E217868FFF764FFD4
:10413000032000F089FBFB781846FFF7B3FF00234C
:10414000FB731CE0FB7B19467868FFF785FF03468D
:10415000BB81FB7B0E4A52F82350BB891846FCF703
:1041600025FE0346FC7B19462846FCF773FE0346F2
:104170001A46074B43F82420FB7B0133FB73FB7B80
:10418000062BDFD900BF00BF1037BD46B0BD00BF52
:10419000E003002090B591B000AFF860B9607A609C
:1041A0004821F868FFF728FF0C2000F04DFBF86865
:1041B000FFF735FFB8625821F868FFF71DFF0C20A4
:1041C00000F042FBF868FFF72AFF7862786AFCF794
:1041D000E9FD0246694B5B6919461046FCF730FD64
:1041E00003463B62654B9B69396A1846FCF732FE11
:1041F000034663491846FCF725FD0346FB635F4B06
:104200009C685E4B1B69396A1846FCF723FE03461F
:1042100019462046FCF716FD0346BB63574B5C6806
:10422000564BDB68396A1846FCF714FE03461946FC
:104230002046FCF707FD03467B635149F86BFCF70A
:10424000A7FF0346002B68D0396A386AFCF702FEE4
:1042500003464FF040511846FCF7FCFD0346FB6156
:104260004749F86BFCF7ECFC03461C464449F86BE5
:10427000FCF7E6FC034619462046FCF7EBFD034637
:10428000BB614049B869FCF7E5FD03463B633E4925
:10429000B869FCF7DFFD0346FB623C49F86BFCF7AD
:1042A00077FF0346002B26D03949F86BFCF7CAFC90
:1042B00003461C463649F86BFCF7C4FC0346194616
:1042C0002046FCF7C7FD0346BB613249B869FCF7DD
:1042D000C1FD03461946386BFCF7B4FC03463B634B
:1042E0002D49B869FCF7B6FD03461946F86AFCF794
:1042F000A9FC0346FB62F969F86BFCF7A1FC0346D5
:10430000FB63396BB86BFCF79BFC0346BB63F96A34
:10431000786BFCF795FC03467B63B86AFCF742FDBB
:104320000346796B1846FCF795FD03464FF0545150
:104330001846FCF78FFD0346B96B1846FCF780FC66
:1043400003464FF060511846FCF784FD03467B613D
:10435000BB68002B07D01149F86BFCF77BFD0346C7
:104360001A46BB681A607B68002B02D07B687A69AA
:104370001A6000BF4437BD4690BD00BFE003002077
:104380000000FA44000020400000A03F0080BBC4B1
:104390000080BB440000E0400000B0400AD7233C4E
:1043A00080B400AF4FF0B043D3F890304FF0B0423C
:1043B00043F40043C2F8903000BFBD4680BC704754
:1043C00080B485B000AF78604FF0B0439A6D4FF085
:1043D000B0417B6813438B654FF0B0439A6D7B68A7
:1043E0001340FB60FB6800BF1437BD4680BC7047BC
:1043F00080B58CB000AF3B1D2C220021184610F078
:104400005DFC234B234A1A60214B1F229A60204BEC
:1044100000221A611E4B00225A611D4B00229A6134
:104420001B4B4FF08042DA61194B00221A62184B85
:104430004FF480725A62164806F0D2FA0346002BF7
:1044400001D0FFF7D3FD124806F0D2FD0346002B42
:1044500001D0FFF7CBFD4FF000433B620023BB6070
:104460000023BB614FF00053FB614FF48073FB628C
:104470003B1D00221946064806F03EFB0346002B72
:1044800001D0FFF7B3FD00BF3037BD4680BD00BF90
:10449000FC0300200028004080B590B000AF786099
:1044A00007F1080338220021184610F007FC7B684A
:1044B0001B68164A934225D14FF48033BB604FF4FA
:1044C0008073FB6307F10803184606F06FF9034693
:1044D000002B01D0FFF78AFDFFF762FF4FF48060E9
:1044E000FFF76EFF00220021022002F0D4F8022024
:1044F00002F0EBF8002200212A2002F0CCF82A205A
:1045000002F0E3F800BF4037BD4680BD0028004000
:1045100080B400AF034B0122C3F8882000BFBD4622
:1045200080BC70470004005880B400AF00BFBD4697
:1045300080BC704780B400AF00BFBD4680BC7047F0
:1045400080B500AF01F01AF9FFF7E2FF012004F097
:104550004FFF00BF80BD80B500AF01F01DF900F036
:104560004BFF00BF80BD80B500AF01F007F901210E
:10457000002004F0B9FE00BF80BD80B500AF01F09F
:104580000BF900BF80BD80B400AF00BFBD4680BC4A
:10459000704780B400AF00BFFDE780B400AF00BF3C
:1045A000FDE780B400AF00BFFDE780B400AF00BFFF
:1045B000FDE780B400AF00BFFDE780B400AF00BFEF
:1045C000BD4680BC704780B400AF00BFBD4680BC14
:1045D000704780B400AF00BFBD4680BC704780B458
:1045E00000AF00BFBD4680BC7047000080B500AF83
:1045F000024806F039FD00BF80BD00BFFC0300206B
:1046000080B500AF024802F0F7FA00BF80BD00BFDE
:104610007805002080B500AF024807F0E9FC00BF34
:1046200080BD00BF5004002080B500AF024807F0F5
:10463000DFFC00BF80BD00BFE404002080B500AFF8
:10464000024806F0C1FB00BF80BD00BFFC03002094
:1046500080B500AF024803F06BFC00BF80BD00BF17
:104660009402002080B500AF024803F07BFC00BF3D
:1046700080BD00BF9402002080B500AF024807F063
:1046800061F800BF80BD00BF3404002080B485B055
:1046900000AF78604FF0B0435A6E4FF0B0417B6886
:1046A00013434B664FF0B0435A6E7B681340FB6078
:1046B000FB6800BF1437BD4680BC704780B500AFB3
:1046C000064B08221A60054806F0BAFD0346002B87
:1046D00001D0FFF78BFC00BF80BD00BF3404002079
:1046E00080B582B000AF78600120FFF7CFFF0022D5
:1046F0000021322001F0CFFF322001F0E6FF00BFA1
:104700000837BD4680BD80B483B000AF78604FF0FD
:10471000B0439B6823F400424FF0B0417B681343E1
:104720008B6000BF0C37BD4680BC704780B500AFC2
:104730000020FFF7E8FF0EF0DBF90C4B01221A70A6
:1047400000F0A2F80EF064FC09480EF0FDFC022017
:104750000EF008FD0DF086FC012101200DF0C2FCD9
:10476000012101200DF08EFC00BF80BD400400201F
:104770008147000880B500AF0DF0E4FC00BF80BDAC
:1047800080B586B002AF7860396007F1080318463B
:104790000DF082FDBB68B7F90C200092074A10218A
:1047A000786800F01DF87868FBF73AFD03469AB286
:1047B0003B681A8000BF1037BD4680BD387E0108B7
:1047C00080B500AF012102200DF05CFC00BF80BD70
:1047D00080B500AF002102200DF054FC00BF80BD69
:1047E0000CB480B584B000AF7860396007F11C0369
:1047F000FB603968FB68BA6978680DF099FE00BF04
:104800001037BD46BDE8804002B0704780B483B029
:1048100000AF7860002318460C37BD4680BC704757
:1048200080B582B000AF00237B60064B1B78002B65
:1048300002D000F0BBF978607B6818460837BD46A7
:1048400080BD00BF4004002080B582B000AF78601A
:104850007B68184600F031FA00BF0837BD4680BDBE
:1048600080B483B000AF7860064BD3F89020054940
:104870007B681343C1F8903000BF0C37BD4680BC45
:10488000704700BF0008005880B500AF4FF480406B
:10489000FFF7E6FF00F08EFF00F092FF00F096FFBA
:1048A00000BF80BD80B400AF01231846BD4680BC68
:1048B000704780B582B000AF7860396010F088FA38
:1048C000034616221A604FF0FF3318460837BD46DC
:1048D00080BD80B582B000AF78604FF0FF3178685E
:1048E000FFF7E7FF00BFFDE780B586B000AFF860D7
:1048F000B9607A6000237B610AE0AFF30080014673
:10490000BB685A1CBA60CAB21A707B6901337B61FA
:104910007A697B689A42F0DB7B6818461837BD4697
:1049200080BD80B586B000AFF860B9607A600023C2
:104930007B6109E0BB685A1CBA601B781846AFF36C
:1049400000807B6901337B617A697B689A42F1DB85
:104950007B6818461837BD4680BD80B483B000AF71
:1049600078604FF0FF3318460C37BD4680BC704767
:1049700080B483B000AF786039603B684FF4005278
:104980005A60002318460C37BD4680BC704780B47F
:1049900083B000AF7860012318460C37BD4680BC59
:1049A000704780B485B000AFF860B9607A600023CA
:1049B00018461437BD4680BC7047000080B586B0ED
:1049C00000AF7860144A154BD31A7B617B693B6159
:1049D000134B1B68002B02D1114B124A1A60104B6B
:1049E0001A687B6813443A699A4207D210F0F0F9CA
:1049F00003460C221A604FF0FF3309E0084B1B6896
:104A0000FB60074B1A687B681344054A1360FB6818
:104A100018461837BD4680BD000001200004000084
:104A2000440400206010002080B400AF00BFBD46E9
:104A300080BC704780B483B000AF78607B689B68AF
:104A400018460C37BD4680BC7047000080B582B068
:104A500000AF0023FB71144B1B7883F00103DBB222
:104A6000002B1BD0114B4FF0FF321A63FFF7C0FC35
:104A700000F056F84FF480710C4806F049F90B4BE2
:104A80004FF0FF321A63094806F080FA002000F068
:104A9000D3F900F05FF8044B01221A70FB79184635
:104AA0000837BD4680BD00BF48040020FC0300203D
:104AB00080B58EB000AF7860002387F8373007F1FB
:104AC00008032C220021184610F0F8F800F028F80E
:104AD000114B1B687A6813447B6000237B627B6800
:104AE000DB43FB600023FB614FF000533B624FF45C
:104AF00080733B6307F1080301221946074805F05C
:104B0000FBFF0346002B01D0FFF770FA97F8373010
:104B100018463837BD4680BD4C040020FC030020F9
:104B200080B582B000AF0023FB71084B0122DA652B
:104B30004FF48071064806F0EBF8054B4FF0FF325A
:104B40001A63FB7918460837BD4680BD002800402F
:104B5000FC03002080B500AF00F08EF90346034A45
:104B60001360024B1B68184680BD00BF4C04002038
:104B700080B400AF024B1B681846BD4680BC70472E
:104B80004C04002080B582B000AF00237B6000F0B1
:104B900073F90246044B1B68D31A7B607B68184686
:104BA0000837BD4680BD00BF4C04002080B582B0F0
:104BB00000AF00237B60064B1B78002B02D000F077
:104BC0005BF978607B6818460837BD4680BD00BF3A
:104BD0004804002080B483B000AF00237B6003232F
:104BE0007B607B6818460C37BD4680BC7047B0B50B
:104BF00084B000AF78600021F960796800200A462F
:104C00000346950D94024FF47A724FF0000320464C
:104C10002946FCF72BFB02460B461346FB60FB685C
:104C200018461037BD46B0BD2DE9B00F85B000AFB6
:104C300078600021F960796800200C46054620461E
:104C400029464FF0000A4FF0000B4FEA411B4BEA98
:104C5000D06B4FEA401A50465946021B61EB0503E0
:104C60004FF000004FF00001990041EA927190006E
:104C700002460B4612EB040843EB05094FF0000215
:104C80004FF000034FEAC90343EA58734FEAC802E2
:104C900090469946404649464FF000024FF00003C7
:104CA000820A42EA81528B0A1346FB60FB6818466F
:104CB0001437BD46BDE8B00F704780B584B000AF73
:104CC00078607868FFF793FFF86000F0D5F8B86077
:104CD00000E000BF00F0D0F80246BB68D31AFA68C3
:104CE0009A42F6D800BF00BF1037BD4680BD80B5E0
:104CF00082B000AF78600EF049F800BF0837BD46BB
:104D000080BD80B584B000AF786000F0A5F8F86091
:104D1000FB680133184600F08FF800BF1037BD461E
:104D200080BD2DE9B04F8CB000AF78610023FB62ED
:104D300000F0A2F8B86200F08FF878627B6A002277
:104D4000BB60FA604FF000024FF00003B9680B003F
:104D50000022B96A00200C46054612EB040843EB1A
:104D60000509C7E90689D7E906014FF000024FF0AF
:104D70000003820A42EA81528B0A1346FB62BB6936
:104D800000223B607A603B68C3F3090A4FF0000BD6
:104D9000C7E906ABBB691846FFF746FF03469AB260
:104DA0007B691A80FB6A18463037BD46BDE8B08F74
:104DB00080B582B000AF78607A680021034806F0C1
:104DC00077F900BF0837BD4680BD00BFFC03002057
:104DD00080B582B000AF78607A680121034806F0A0
:104DE00067F900BF0837BD4680BD00BFFC03002047
:104DF00080B582B000AF00237B600021044806F03C
:104E00006FF978607B6818460837BD4680BD00BFE3
:104E1000FC03002080B582B000AF00237B6001213D
:104E2000044806F05DF978607B6818460837BD468F
:104E300080BD00BFFC03002080B582B000AF786069
:104E40007A680221034806F033F900BF0837BD46EF
:104E500080BD00BFFC03002080B582B000AF0221FE
:104E6000044806F03DF978607B6818460837BD466F
:104E700080BD00BFFC03002080B582B000AF0B48AE
:104E8000FFF7D8FD786003E00848FFF7D3FD7860AE
:104E90000648FFF7CFFD02467B689342F4D17B685A
:104EA000DB4318460837BD4680BD00BF00280040E0
:104EB00080B485B000AF78604FF0B043DA6C4FF04B
:104EC000B0417B681343CB644FF0B043DA6C7B682E
:104ED0001340FB60FB6800BF1437BD4680BC7047C1
:104EE00080B485B000AF78604FF0B0439A6D4FF05A
:104EF000B0417B6813438B654FF0B0439A6D7B687C
:104F00001340FB60FB6800BF1437BD4680BC704790
:104F100080B483B000AF78604FF0B0439A6D7B6887
:104F2000DB434FF0B04113408B6500BF0C37BD46EB
:104F300080BC704780B485B000AF78604FF0B0435C
:104F40001A6E4FF0B0417B6813430B664FF0B043CD
:104F50001A6E7B681340FB60FB6800BF1437BD46C8
:104F600080BC704780B483B000AF78604FF0B0432E
:104F70001A6E7B68DB434FF0B04113400B6600BFF5
:104F80000C37BD4680BC704780B500AF224B234A2A
:104F90001A60214B4FF4E1325A601F4B00229A6095
:104FA0001D4B0022DA601C4B00221A611A4B0C22A6
:104FB0005A61194B00229A61174B0022DA61164B95
:104FC00000221A62144B00225A62134B00229A628A
:104FD000114806F088FD0346002B01D0FFF706F8C4
:104FE00000210D4809F05DF80346002B01D0FEF7C3
:104FF000FDFF0021084809F092F80346002B01D07C
:10500000FEF7F4FF044809F014F80346002B01D022
:10501000FEF7ECFF00BF80BD5004002000380140C7
:1050200080B500AF224B234A1A60214B4FF4E13286
:105030005A601F4B00229A601D4B0022DA601C4B05
:1050400000221A611A4B0C225A61194B00229A61F4
:10505000174B0022DA61164B00221A62144B002211
:105060005A62134B00229A62114806F03CFD034637
:10507000002B01D0FEF7BAFF00210D4809F011F80E
:105080000346002B01D0FEF7B1FF0021084809F0CC
:1050900046F80346002B01D0FEF7A8FF044808F0AD
:1050A0008DFF0346002B01D0FEF7A0FF00BF80BD9F
:1050B000E40400200044004080B596B000AF786062
:1050C00007F1440300221A605A609A60DA601A619C
:1050D00007F10C033822002118460FF0EFFD7B6822
:1050E0001B68494A93422ED10123FB604FF44033A1
:1050F0003B6107F10C03184605F058FB0346002BF3
:1051000001D0FEF773FF4FF48040FFF713FF02203A
:10511000FFF7CEFEC0237B640223BB640023FB6445
:1051200000233B6507237B6507F144031946374895
:1051300001F0DEFE00220021242001F0ACFA242040
:1051400001F0C3FA5BE07B681B68314A934256D199
:105150000223FB602F4B7B6107F10C03184605F01F
:1051600025FB0346002B01D0FEF740FF4FF4003033
:10517000FFF7B6FE0120FFF79BFE0C237B640223A2
:10518000BB640023FB6400233B6507237B6507F1B9
:10519000440319464FF0904001F0AAFE1E4B1F4AEF
:1051A0001A601D4B14225A601B4B10229A601A4B36
:1051B0000022DA60184B80221A61174B00225A61D4
:1051C000154B00229A61144B0022DA61124B002227
:1051D0001A62114801F096FA0346002B01D0FEF73F
:1051E00005FF7B680C4ADA670B4A7B6893620022F2
:1051F0000221252001F04FFA252001F066FA00BFB8
:105200005837BD4680BD00BF00380140000400484B
:105210000044004004000C00780500200800024013
:1052200080B582B000AF78607B681B68144A9342F7
:105230000BD14FF48040FFF795FEC021114801F0DB
:10524000B7FF242001F04FFA15E07B681B680E4A77
:10525000934210D14FF40030FFF75AFE0C214FF06B
:10526000904001F0A5FF7B68DB6F184601F0F2FA71
:10527000252001F038FA00BF0837BD4680BD00BFC9
:1052800000380140000400480044004080B483B06E
:1052900000AF78604FF0B0439A6B4FF0B0417B683D
:1052A00013438B6300BF0C37BD4680BC704780B48E
:1052B00083B000AF78604FF0B0439A6B7B68DB43FC
:1052C0004FF0B04113408B6300BF0C37BD4680BC2C
:1052D0007047000080B483B000AF7860064BD3F80D
:1052E000802005497B681343C1F8803000BF0C372C
:1052F000BD4680BC704700BF0008005880B582B032
:1053000000AF7860074A7B681360FCF781FDFFF708
:1053100087FE4FF00060FFF7DDFF002318460837D7
:10532000BD4680BDE407002080B500AF4FF40030DB
:10533000FFF7ACFF4FF40030FFF7B9FF0448FFF769
:105340006FFF0F2001F0CFF90023184680BD00BF8A
:10535000E404002080B582B000AF78600B467B800B
:105360007B881A467968044806F0C2FD0023184677
:105370000837BD4680BD00BFE404002080B584B07E
:1053800000AF7860194A7B6813604FF40013BB606C
:1053900007F1080393E80600154808F082FD00BFF6
:1053A000134B1B68DB6903F48033B3F5803FF7D000
:1053B00000BF0F4B1B68DB6903F48003B3F5800F5C
:1053C000F7D10B4B1B689A68094B1B6842F48002AB
:1053D0009A60074808F0C0FD01220649044806F01B
:1053E0003BFD002318461037BD4680BDE80700206E
:1053F000E4040020D805002080B500AF084806F07E
:1054000072FB0346002B01D0FEF7F0FD054801F0CA
:1054100079F90346002B01D0FEF7E8FD00BF80BDFF
:10542000E40400207805002080B582B000AF7860E9
:105430007B681B68054A934203D1054B1B6800201B
:10544000984700BF0837BD4680BD00BF00440040FC
:10545000E407002080B582B000AF78607B681B68ED
:105460001D4A93421BD11D4B1B889BB21A461C4BF5
:105470001B78D9B21B4B9954184B1B889BB2013334
:105480005A42C3F30803C2F3080258BF53429AB208
:10549000124B1A8001221249134806F0DDFC7B688A
:1054A0001B68124A934213D1114B1B68002B0AD080
:1054B0007B68D3F89030002B05D10D4B1B68002280
:1054C00001210C48984701220A49786806F0C4FC7B
:1054D00000BF0837BD4680BD00380140DC07002012
:1054E000E0070020DC0500205004002000440040BC
:1054F000E8070020D80500200D488546FFF794FAFC
:105500000C480D490D4A002302E0D458C45004331E
:10551000C4188C42F9D30A4A0A4C002301E01360F4
:105520000432A242FBD30FF059FCFDF713FCFEE757
:105530000000012000000020F001002034AA010832
:10554000F001002060100020FEE780B485B000AFBD
:1055500078604FF0B043DA6C4FF0B0417B68134392
:10556000CB644FF0B043DA6C7B681340FB60FB68A0
:1055700000BF1437BD4680BC7047000080B586B0C0
:1055800000AF3B1D00221A605A609A60DA601A610F
:105590000220FFF7DAFF0420FFF7D7FF4FF48073F4
:1055A0007B600123BB600023FB6003233B613B1D49
:1055B00019460E4801F09CFC4FF400537B603B1DE4
:1055C00019460B4801F094FC00224FF400510848A2
:1055D00001F0D3FE00224FF48071044801F0CDFEAB
:1055E000002318461837BD4680BD00BF00040048A0
:1055F0000008004880B582B000AF0346FB71FB791C
:10560000032B3FD801A252F823F000BF1D5600081B
:1056100037560008515600086B56000800224FF418
:1056200080711B4801F0A9FE00224FF40051194877
:1056300001F0A3FE27E001224FF48071144801F02D
:105640009CFE00224FF40051124801F096FE1AE031
:1056500001224FF480710E4801F08FFE01224FF4B9
:1056600000510C4801F089FE0DE000224FF48071DA
:10567000074801F082FE01224FF40051054801F075
:105680007CFE00E000BF002318460837BD4680BD01
:10569000000400480008004880B400AF0223184608
:1056A000BD4680BC704780B400AF00231846BD469D
:1056B00080BC704780B400AF01231846BD4680BC53
:1056C000704780B485B000AF0346FB71FB79002BB7
:1056D00002D10F23FB6001E01623FB60FB68184634
:1056E0001437BD4680BC704780B400AF044B5B6884
:1056F000034A43F00103536000BFBD4680BC7047BE
:10570000002004E080B400AF044B5B68034A43F020
:105710000203536000BFBD4680BC7047002004E018
:1057200080B400AF044B5B68034A43F0040353604A
:1057300000BFBD4680BC7047002004E080B582B049
:1057400000AF0023FB71032000F09AFF04F050FE2D
:105750000346094A13600F20FFF758F80346002B51
:1057600002D00123FB7101E0FEF70DFFFB79184623
:105770000837BD4680BD00BF0000002080B400AFE8
:10578000044B1B68034A23F00203136000BFBD46AD
:1057900080BC704710E000E080B400AF044B1B6891
:1057A000034A43F00203136000BFBD4680BC70474C
:1057B00010E000E080B500AFFFF796FF00BF80BDAE
:1057C00080B500AFFFF79EFF00BF80BD80B500AF82
:1057D000FFF7A6FF00BF80BD80B483B000AF786044
:1057E00039607B681B6823F0E0723B681A437B6872
:1057F0001A6000BF0C37BD4680BC704780B483B0D0
:1058000000AF78607B681B6803F0E07318460C37C4
:10581000BD4680BC704780B485B000AFF860B96009
:105820007A60FB685A69BB6803F00403072101FA38
:1058300003F3DB431A40BB6803F00403796801FA01
:1058400003F31A43FB685A6100BF1437BD4680BC9E
:10585000704780B483B000AF786039607B685A6964
:105860003B6803F00403072101FA03F31A403B6885
:1058700003F0040322FA03F318460C37BD4680BC3C
:10588000704780B483B000AF78607B68DB6803F456
:105890004063002B01D1012300E0002318460C37A0
:1058A000BD4680BC704780B485B000AFF860B96079
:1058B0007A60FB689A6ABB6803F01F030F2101FA44
:1058C00003F3DB431A407B689B0E03F00F01BB68B8
:1058D00003F01F0301FA03F31A43FB689A6200BF47
:1058E0001437BD4680BC704780B483B000AF786089
:1058F00039607B689A6A3B68C3F311031A437B687B
:105900009A6200BF0C37BD4680BC704780B483B03C
:1059100000AF786039607B689A6A3B68C3F3110313
:10592000DB431A407B689A6200BF0C37BD4680BCDF
:10593000704780B485B000AFF860B9607A60FB68EA
:105940005A69BB681B02DB431A40BB6819027B68BB
:105950000B4023F07C4323F0FF031A43FB685A619A
:1059600000BF1437BD4680BC704780B483B000AF21
:1059700078607B689B6823F0104323F0170343F0A3
:1059800080527B689A6000BF0C37BD4680BC704770
:1059900080B483B000AF78607B689B6803F080536D
:1059A000B3F1805F01D1012300E0002318460C37DA
:1059B000BD4680BC704780B483B000AF78607B6820
:1059C0009B6823F0004323F0170343F001027B6838
:1059D0009A6000BF0C37BD4680BC704780B483B06E
:1059E00000AF78607B689B6823F0004323F01703C7
:1059F00043F002027B689A6000BF0C37BD4680BC52
:105A0000704780B483B000AF78607B689B6803F018
:105A10000103012B01D1012300E0002318460C37BC
:105A2000BD4680BC704780B483B000AF78607B68AF
:105A30009B6803F00203022B01D1012300E0002345
:105A400018460C37BD4680BC704780B483B000AFA9
:105A500078607B689B6823F0004323F0170343F0D2
:105A600004027B689A6000BF0C37BD4680BC70475B
:105A700080B483B000AF78607B689B6823F00043FC
:105A800023F0170343F010027B689A6000BF0C37C5
:105A9000BD4680BC704780B483B000AF78607B683F
:105AA0009B6803F00403042B01D1012300E00023D1
:105AB00018460C37BD4680BC7047000080B588B0E2
:105AC00000AF78600023FB770023BB6100237B617C
:105AD0000023FB607B68002B01D101237EE17B6802
